:020000020000FC
:040000000C9400015B
:100200000FE50DBF08E00EBF0FEF0ABB04BB0E9455
:10021000A602AE9800E80BBBA99A0000A9980E941C
:100220009A02AE9A02E40BBBA99A0000A9980E9418
:100230009A02AE9A01E40BBBA99A0000A9980E9409
:100240009A02AE9A04E50BBBA99A0000A9980E94F5
:100250009A02AE9A05E40BBBA99A0000A9980E94E5
:100260009A02AE9A02E50BBBA99A0000A9980E94D7
:100270009A02AE9A09E40BBBA99A0000A9980E94C1
:100280009A02AE9A05E40BBBA99A0000A9980E94B5
:100290009A02AE9A0AE30BBBA99A0000A9980E94A1
:1002A0009A02AE9800E40BBBA99A0000A9980E949C
:1002B0009A02AE9A04E00BBBA99A0000A9980E948A
:1002C0009A02AE9A0EE00BBBA99A0000A9980E9470
:1002D0009A02AE9A0AE00BBBA99A0000A9980E9464
:1002E0009A02AE9A0AE00BBBA99A0000A9980E9454
:1002F0009A02AE9A0AE00BBBA99A0000A9980E9444
:100300009A02AE9A0AE00BBBA99A0000A9980E9433
:100310009A02AE9A0AE00BBBA99A0000A9980E9423
:100320009A02AE9A0EE00BBBA99A0000A9980E940F
:100330009A02AE9808E40BBBA99A0000A9980E9403
:100340009A02AE9A04E00BBBA99A0000A9980E94F9
:100350009A02AE9A0EE00BBBA99A0000A9980E94DF
:100360009A02AE9A0AE00BBBA99A0000A9980E94D3
:100370009A02AE9A0AE00BBBA99A0000A9980E94C3
:100380009A02AE9A0AE00BBBA99A0000A9980E94B3
:100390009A02AE9A0EE00BBBA99A0000A9980E949F
:1003A0009A02AE9A0EE00BBBA99A0000A9980E948F
:1003B0009A02AE9A0EE00BBBA99A0000A9980E947F
:1003C0009A02AE9800E50BBBA99A0000A9980E947A
:1003D0009A02AE9A04E00BBBA99A0000A9980E9469
:1003E0009A02AE9A0EE00BBBA99A0000A9980E944F
:1003F0009A02AE9A0AE00BBBA99A0000A9980E9443
:100400009A02AE9A0AE00BBBA99A0000A9980E9432
:100410009A02AE9A0EE00BBBA99A0000A9980E941E
:100420009A02AE9A0EE00BBBA99A0000A9980E940E
:100430009A02AE9A0EE00BBBA99A0000A9980E94FE
:100440009A02AE9A0EE00BBBA99A0000A9980E94EE
:100450009A02AE9808E50BBBA99A0000A9980E94E1
:100460009A02AE9A04E00BBBA99A0000A9980E94D8
:100470009A02AE9A0EE00BBBA99A0000A9980E94BE
:100480009A02AE9A0EE00BBBA99A0000A9980E94AE
:100490009A02AE9A0EE00BBBA99A0000A9980E949E
:1004A0009A02AE9A0EE00BBBA99A0000A9980E948E
:1004B0009A02AE9A0EE00BBBA99A0000A9980E947E
:1004C0009A02AE9A0EE00BBBA99A0000A9980E946E
:1004D0009A02AE9A0EE00BBBA99A0000A9980E945E
:1004E0009A02AE980CE80BBBA99A0000A9980E944A
:1004F0009A02AE9A00E00BBBA99A0000A9980E944C
:100500009A02AE9A01E00BBBA99A0000A9980E943A
:100510009A02AE9A02E00BBBA99A0000A9980E9429
:100520009A02AE9A03E00BBBA99A0000A9980E9418
:100530009A02FFCF64EB00006A95E9F7089550EA4C
:1005400000006A95E9F75A95D9F708950E949F022D
:100550000E949F02AE9800E30BBBA99A0000A998E5
:100560000E949A020E949F02AE9800E30BBBA99AD8
:100570000000A9980E949A020E949F02AE9800E390
:100580000BBBA99A0000A9980E949A02AE9808E3B2
:100590000BBBA99A0000A9980E949A02AE980EE09F
:1005A0000BBBA99A0000A9980E949A02AE9806E097
:1005B0000BBBA99A0000A9980E949A02AE9801E08C
:1005C0000BBBA99A0000A9980E949A02AE9802E07B
:1005D0000BBBA99A0000A9980E949A020E949F0250
:0205E00008957C
:00000001FF
